:100000000C9434000C9451000C9451000C94510049
:100010000C9451000C9451000C9451000C9451001C
:100020000C9451000C9451000C9451000C9451000C
:100030000C9451000C9459020C9451000C945100F2
:100040000C9451000C9451000C9451000C945100EC
:100050000C9451000C9448030C9451000C945100E2
:100060000C9451000C94510011241FBECFEFD8E026
:10007000DEBFCDBF11E0A0E0B1E0E0E8FDE002C0EE
:1000800005900D92A033B107D9F721E0A0E3B1E0CC
:1000900001C01D92A633B207E1F70E9498010C94AB
:1000A000BE060C940000FC01408121E030E002C05B
:1000B000220F331F6A95E2F7242B20830895FC0159
:1000C000808121E030E002C0220F331F6A95E2F701
:1000D0002095822380838081282320830895FC013A
:1000E000808121E030E002C0220F331F6A95E2F7E1
:1000F000922F9095892380838181282B21830895D5
:10010000FC01908121E030E002C0220F331F6A958C
:10011000E2F72095292320830895FC01408121E006
:1001200030E002C0220F331F6A95E2F7242B2083B0
:100130000895FC01808190E002C0959587956A95AD
:10014000E2F78170089585B1826085B985E08A956E
:10015000F1F7000085B18D7F85B90895CF93C82F41
:10016000662321F085B1816085B903C085B18E7F9A
:1001700085B98AB180618AB98AB180628AB98AB147
:1001800080648AB98AB180688AB98BB18F778BB95C
:100190008BB18F7B8BB98BB18F7D8BB98BB18F7E00
:1001A0008BB9CC231CF48BB180688BB9C6FF03C01C
:1001B0008BB180648BB9C5FF03C08BB180628BB9F2
:1001C000C4FF03C08BB180618BB90E94A3008BB1C7
:1001D0008F778BB98BB18F7B8BB98BB18F7D8BB9BF
:1001E0008BB18F7E8BB9C3FF03C08BB180688BB995
:1001F000C2FF03C08BB180648BB9C1FF03C08BB158
:1002000080628BB9C0FF03C08BB180618BB90E9443
:10021000A3008BB180618BB98BB180628BB98BB13C
:1002200080648BB98BB180688BB987EB9BE00197B9
:10023000F1F700C00000CF91089560E00E94AE0089
:100240000895611104C080580E941D0108958054D2
:100250000E941D01089581E00E941D01089561E042
:100260000E94AE000895CF93DF93FC0103C00E946B
:100270002F01FE01EF01219680818111F8CFDF91DE
:10028000CF910895CF93C82F84B1816084B98AB18A
:1002900080628AB984B1826084B98AB180618AB986
:1002A0008AB180628AB98AB180648AB98AB1806869
:1002B0008AB98FEF99EF0197F1F700C000008BB179
:1002C00080628BB98BB180618BB90E94A3008FE1F2
:1002D0009EE40197F1F700C000000E94A3008FEF99
:1002E00090E00197F1F700C000000E94A3008FEF9B
:1002F00090E00197F1F700C000008BB18F7E8BB9C1
:100300000E94A3008FEF90E00197F1F700C000007A
:1003100088E20E941D0188E00E941D010E942B01BD
:1003200086E00E941D018C2F0E941D01CF9108952F
:10033000CF93DF9300D000D0CDB7DEB761E087E286
:1003400090E00E94530061E088E290E00E9480000B
:1003500062E087E290E00E94530062E088E290E071
:100360000E94800062E084E290E00E94530062E01C
:1003700085E290E00E94800063E084E290E00E94C9
:10038000530063E085E290E00E94800064E085E233
:1003900090E00E945F0065E085E290E00E945F00CF
:1003A00062E08BE290E00E946F008CE00E944201CC
:1003B00060E080E00E94210181E091E00E94330131
:1003C00061E080E00E94210182E191E00E9433011E
:1003D000E1E8F0E080818C7F80838081846080838D
:1003E000EFE6F0E08081816080837894ECE7F0E0D4
:1003F0008081806480838081806880838081877F22
:10040000808380818B7F808380818D7F80838081CA
:100410008E7F8083EAE7F0E080818068808380813E
:100420008860808380818460808380818260808313
:1004300080818160808362E089E290E00E9499007F
:100440008111F9CF809100018F5F8093000160E0FE
:1004500084E00E9421018DE29DE29C838B83809148
:1004600000014AE0BE016D5F7F4F90E00E94890667
:10047000CE0103960E943301809100018932D9F6A2
:100480008AE08093000160E084E00E9421018DE217
:100490009DE29A838983809100014AE0BE016F5FEB
:1004A0007F4F90E00E948906CE0101960E943301A1
:1004B000C2CF1F920F920FB60F9211242F933F932A
:1004C0004F935F936F937F938F939F93AF93BF935C
:1004D000EF93FF93809134019091350101969093B1
:1004E00035018093340164E083E290E00E9499003A
:1004F000813049F461E08AE00E94210183E291E0C9
:100500000E9433010FC064E083E290E00E949900F2
:10051000811108C061E08AE00E94210186E291E039
:100520000E94330165E083E290E00E9499008130EF
:1005300049F461E08DE00E94210183E291E00E9494
:1005400033010FC065E083E290E00E9499008111C1
:1005500008C061E08DE00E94210186E291E00E94E6
:100560003301EAE7F0E08081806480838091340188
:1005700090913501059709F054C06091000170E039
:1005800061507109072E000C880B990B0E940F0512
:10059000209130013091310140913201509133016D
:1005A0000E94170688232CF061E088E290E00E9408
:1005B0008D006091000170E06F5F7F4F072E000C8F
:1005C000880B990B0E940F05209130013091310169
:1005D00040913201509133010E94600418162CF0B2
:1005E00062E088E290E00E948D0064E083E290E0A7
:1005F0000E949900813029F462E085E290E00E9437
:100600008D0065E083E290E00E949900813029F43A
:1006100062E085E290E00E948D0010923501109218
:1006200034018091340190913501039729F461E000
:1006300088E290E00E948000809134019091350121
:10064000039729F462E088E290E00E9480008091A4
:10065000340190913501039751F462E085E290E016
:100660000E94800063E085E290E00E948000FF919C
:10067000EF91BF91AF919F918F917F916F915F911A
:100680004F913F912F910F900FBE0F901F90189593
:100690001F920F920FB60F921124CF92DF92EF921A
:1006A000FF922F933F934F935F936F937F938F931B
:1006B0009F93AF93BF93EF93FF93CF93DF9300D0BC
:1006C0001F92CDB7DEB78DE29DE29A8389838DE2DA
:1006D0008B83609178007091790080E090E00E94B7
:1006E0000D0529E632EA49E85FE30E941C0620E096
:1006F00030E044ED53E40E94F30320E030E048ECA6
:1007000050E40E946504609330017093310180933E
:100710003201909333010E94D704DC01CB014AE0FF
:10072000BE016F5F7F4F0E948906C0903001D0905C
:100730003101E0903201F0903301C701B6010E940F
:100740004A059B01AC01C701B6010E94F30320E0FA
:1007500030E040E251E40E941C060E944A050E94DB
:10076000D704DC01CB014AE0BE016D5F7F4F0E94E0
:10077000890661E084E00E94210189E291E00E9403
:10078000330161E084E00E942101CE0101960E94C4
:10079000330161E086E00E9421018EE291E00E9437
:1007A000330161E087E00E942101CE0103960E949F
:1007B00033010F900F900F90DF91CF91FF91EF9148
:1007C000BF91AF919F918F917F916F915F914F9169
:1007D0003F912F91FF90EF90DF90CF900F900FBE41
:1007E0000F901F9018955058BB27AA270E940B0402
:1007F0000C94C5050E94B70538F00E94BE0520F094
:1008000039F49F3F19F426F40C94B4050EF4E095E6
:10081000E7FB0C948505E92F0E94D60558F3BA171B
:10082000620773078407950720F079F4A6F50C9406
:1008300010060EF4E0950B2EBA2FA02D0B01B90176
:1008400090010C01CA01A0011124FF27591B99F046
:10085000593F50F4503E68F11A16F040A22F232F52
:10086000342F4427585FF3CF469537952795A795A2
:10087000F0405395C9F77EF41F16BA0B620B730B49
:10088000840BBAF09150A1F0FF0FBB1F661F771FBA
:10089000881FC2F70EC0BA0F621F731F841F48F46F
:1008A000879577956795B795F7959E3F08F0B0CFF8
:1008B0009395880F08F09927EE0F979587950895DF
:1008C0000E94610508F481E008950E9479040C9467
:1008D000C5050E94BE0558F00E94B70540F029F4F6
:1008E0005F3F29F00C94850551110C9411060C946E
:1008F000B4050E94D60568F39923B1F3552391F30B
:10090000951B550BBB27AA2762177307840738F07E
:100910009F5F5F4F220F331F441FAA1FA9F335D0DB
:100920000E2E3AF0E0E832D091505040E695001C8F
:10093000CAF72BD0FE2F29D0660F771F881FBB1F49
:10094000261737074807AB07B0E809F0BB0B802D27
:10095000BF01FF2793585F4F3AF09E3F510578F053
:100960000C9485050C9411065F3FE4F3983ED4F394
:10097000869577956795B795F7959F5FC9F7880F27
:10098000911D9695879597F90895E1E0660F771F79
:10099000881FBB1F621773078407BA0720F0621B0A
:1009A000730B840BBA0BEE1F88F7E09508950E9435
:1009B000DE046894B1110C94110608950E94DE05BE
:1009C00088F09F5798F0B92F9927B751B0F0E1F010
:1009D000660F771F881F991F1AF0BA95C9F714C0C0
:1009E000B13091F00E941006B1E008950C94100609
:1009F000672F782F8827B85F39F0B93FCCF38695F9
:100A000077956795B395D9F73EF490958095709555
:100A100061957F4F8F4F9F4F0895E89409C097FBD2
:100A20003EF490958095709561957F4F8F4F9F4FC5
:100A30009923A9F0F92F96E9BB279395F695879509
:100A400077956795B795F111F8CFFAF4BB0F11F4CC
:100A500060FF1BC06F5F7F4F8F4F9F4F16C0882373
:100A600011F096E911C0772321F09EE8872F762FA9
:100A700005C0662371F096E8862F70E060E02AF0EA
:100A80009A95660F771F881FDAF7880F96958795D6
:100A900097F908950E94F80590F09F3748F4911156
:100AA00016F00C94110660E070E080E89FEB08956A
:100AB00026F41B16611D711D811D0C948B050C9471
:100AC000A605990F0008550FAA0BE0E8FEEF1616D1
:100AD0001706E807F907C0F012161306E407F50732
:100AE00098F0621B730B840B950B39F40A2661F0A6
:100AF000232B242B252B21F408950A2609F4A14049
:100B0000A6958FEF811D811D089597F99F6780E855
:100B100070E060E00895882371F4772321F0985005
:100B2000872B762F07C0662311F499270DC09051AB
:100B3000862B70E060E02AF09A95660F771F881F79
:100B4000DAF7880F9695879597F908959F3F31F0CA
:100B5000915020F4879577956795B795880F911DEB
:100B60009695879597F908959FEF80EC0895002456
:100B70000A941616170618060906089500240A9402
:100B800012161306140605060895092E0394000C88
:100B900011F4882352F0BB0F40F4BF2B11F460FF17
:100BA00004C06F5F7F4F8F4F9F4F089557FD905840
:100BB000440F551F59F05F3F71F04795880F97FB21
:100BC000991F61F09F3F79F08795089512161306DB
:100BD0001406551FF2CF4695F1DF08C0161617060A
:100BE0001806991FF1CF869571056105089408953F
:100BF0000E94DE05A0F0BEE7B91788F4BB279F3836
:100C000060F41616B11D672F782F8827985FF7CFED
:100C1000869577956795B11D93959639C8F3089594
:100C2000E894BB2766277727CB0197F908950E94A0
:100C3000610508F48FEF08950E942F060C94C505F6
:100C40000E94B70538F00E94BE0520F0952311F0F0
:100C50000C9485050C94B40511240C9411060E9483
:100C6000D60570F3959FC1F3950F50E0551F629F15
:100C7000F001729FBB27F00DB11D639FAA27F00DF5
:100C8000B11DAA1F649F6627B00DA11D661F829F1C
:100C90002227B00DA11D621F739FB00DA11D621F01
:100CA000839FA00D611D221F749F3327A00D611D1E
:100CB000231F849F600D211D822F762F6A2F112400
:100CC0009F5750409AF0F1F088234AF0EE0FFF1F33
:100CD000BB1F661F771F881F91505040A9F79E3F8A
:100CE000510580F00C9485050C9411065F3FE4F3E8
:100CF000983ED4F3869577956795B795F795E795E0
:100D00009F5FC1F7FE2B880F911D9695879597F9E8
:100D10000895BB274A3031F4992322F4BDE290951F
:100D200081959F4F0C949506BB27FB015527AA2759
:100D3000880F991FAA1FA41710F0A41B8395505168
:100D4000B9F7A05DAA3308F0A95DA193009779F7E0
:100D5000B111B1931192CB010C94AE06DC01FC01F0
:100D6000672F71917723E1F7329704C07C916D93DF
:100D700070836291AE17BF07C8F30895F894FFCF50
:100D8000195345542032352C3043204D31204D32FB
:100D900020004D4541202D2D2C2D43202D2D202D83
:100DA0002D20004C4F004849002D2D2C2D002C00EB
:00000001FF
